{
    "contractName": "PoolMarket",
    "abi": [
        {
            "inputs": [
                {
                    "internalType": "address",
                    "name": "_registryContractAddress",
                    "type": "address"
                },
                {
                    "internalType": "uint256",
                    "name": "_minAllowedPrice",
                    "type": "uint256"
                },
                {
                    "internalType": "uint256",
                    "name": "_maxAllowedPrice",
                    "type": "uint256"
                }
            ],
            "stateMutability": "nonpayable",
            "type": "constructor"
        },
        {
            "anonymous": false,
            "inputs": [
                {
                    "indexed": true,
                    "internalType": "uint256",
                    "name": "amount",
                    "type": "uint256"
                },
                {
                    "indexed": true,
                    "internalType": "uint256",
                    "name": "price",
                    "type": "uint256"
                },
                {
                    "indexed": false,
                    "internalType": "address",
                    "name": "sender",
                    "type": "address"
                }
            ],
            "name": "BidSubmitted",
            "type": "event"
        },
        {
            "anonymous": false,
            "inputs": [
                {
                    "indexed": true,
                    "internalType": "uint256",
                    "name": "amount",
                    "type": "uint256"
                },
                {
                    "indexed": true,
                    "internalType": "uint256",
                    "name": "price",
                    "type": "uint256"
                },
                {
                    "indexed": false,
                    "internalType": "address",
                    "name": "sender",
                    "type": "address"
                }
            ],
            "name": "OfferSubmitted",
            "type": "event"
        },
        {
            "anonymous": false,
            "inputs": [
                {
                    "indexed": true,
                    "internalType": "address",
                    "name": "previousOwner",
                    "type": "address"
                },
                {
                    "indexed": true,
                    "internalType": "address",
                    "name": "newOwner",
                    "type": "address"
                }
            ],
            "name": "OwnershipTransferred",
            "type": "event"
        },
        {
            "inputs": [
                {
                    "internalType": "uint256",
                    "name": "hour",
                    "type": "uint256"
                }
            ],
            "name": "calculatePoolPrice",
            "outputs": [],
            "stateMutability": "nonpayable",
            "type": "function"
        },
        {
            "inputs": [],
            "name": "calculateSMP",
            "outputs": [],
            "stateMutability": "nonpayable",
            "type": "function"
        },
        {
            "inputs": [
                {
                    "internalType": "bytes32",
                    "name": "",
                    "type": "bytes32"
                }
            ],
            "name": "energyOffers",
            "outputs": [
                {
                    "internalType": "uint256",
                    "name": "amount",
                    "type": "uint256"
                },
                {
                    "internalType": "uint256",
                    "name": "price",
                    "type": "uint256"
                },
                {
                    "internalType": "uint256",
                    "name": "submitMinute",
                    "type": "uint256"
                },
                {
                    "internalType": "address",
                    "name": "supplierAccount",
                    "type": "address"
                }
            ],
            "stateMutability": "view",
            "type": "function"
        },
        {
            "inputs": [],
            "name": "getBidHours",
            "outputs": [
                {
                    "internalType": "uint256[]",
                    "name": "",
                    "type": "uint256[]"
                }
            ],
            "stateMutability": "view",
            "type": "function"
        },
        {
            "inputs": [
                {
                    "internalType": "uint256",
                    "name": "hour",
                    "type": "uint256"
                }
            ],
            "name": "getDispatchedOffers",
            "outputs": [
                {
                    "components": [
                        {
                            "internalType": "address",
                            "name": "supplierAccount",
                            "type": "address"
                        },
                        {
                            "internalType": "uint256",
                            "name": "dispatchedAmount",
                            "type": "uint256"
                        },
                        {
                            "internalType": "uint256",
                            "name": "dispatchedAt",
                            "type": "uint256"
                        }
                    ],
                    "internalType": "struct IMarket.DispatchedOffer[]",
                    "name": "",
                    "type": "tuple[]"
                }
            ],
            "stateMutability": "view",
            "type": "function"
        },
        {
            "inputs": [
                {
                    "internalType": "uint256",
                    "name": "hour",
                    "type": "uint256"
                }
            ],
            "name": "getEnergyBids",
            "outputs": [
                {
                    "components": [
                        {
                            "internalType": "uint256",
                            "name": "amount",
                            "type": "uint256"
                        },
                        {
                            "internalType": "uint256",
                            "name": "price",
                            "type": "uint256"
                        },
                        {
                            "internalType": "uint256",
                            "name": "submitMinute",
                            "type": "uint256"
                        },
                        {
                            "internalType": "address",
                            "name": "consumerAccount",
                            "type": "address"
                        }
                    ],
                    "internalType": "struct PoolMarket.Bid[]",
                    "name": "",
                    "type": "tuple[]"
                }
            ],
            "stateMutability": "view",
            "type": "function"
        },
        {
            "inputs": [],
            "name": "getLatestTotalDemand",
            "outputs": [
                {
                    "internalType": "uint256",
                    "name": "",
                    "type": "uint256"
                }
            ],
            "stateMutability": "view",
            "type": "function"
        },
        {
            "inputs": [
                {
                    "internalType": "uint256",
                    "name": "minute",
                    "type": "uint256"
                }
            ],
            "name": "getMarginalOffer",
            "outputs": [
                {
                    "components": [
                        {
                            "internalType": "uint256",
                            "name": "amount",
                            "type": "uint256"
                        },
                        {
                            "internalType": "uint256",
                            "name": "price",
                            "type": "uint256"
                        },
                        {
                            "internalType": "uint256",
                            "name": "submitMinute",
                            "type": "uint256"
                        },
                        {
                            "internalType": "address",
                            "name": "supplierAccount",
                            "type": "address"
                        }
                    ],
                    "internalType": "struct PoolMarket.Offer",
                    "name": "",
                    "type": "tuple"
                }
            ],
            "stateMutability": "view",
            "type": "function"
        },
        {
            "inputs": [
                {
                    "internalType": "uint256",
                    "name": "hour",
                    "type": "uint256"
                }
            ],
            "name": "getPoolPrice",
            "outputs": [
                {
                    "internalType": "uint256",
                    "name": "",
                    "type": "uint256"
                }
            ],
            "stateMutability": "view",
            "type": "function"
        },
        {
            "inputs": [],
            "name": "getPoolpriceHours",
            "outputs": [
                {
                    "internalType": "uint256[]",
                    "name": "",
                    "type": "uint256[]"
                }
            ],
            "stateMutability": "view",
            "type": "function"
        },
        {
            "inputs": [
                {
                    "internalType": "uint256",
                    "name": "minute",
                    "type": "uint256"
                }
            ],
            "name": "getSMP",
            "outputs": [
                {
                    "internalType": "uint256",
                    "name": "",
                    "type": "uint256"
                }
            ],
            "stateMutability": "view",
            "type": "function"
        },
        {
            "inputs": [],
            "name": "getSystemMarginalMinutes",
            "outputs": [
                {
                    "internalType": "uint256[]",
                    "name": "",
                    "type": "uint256[]"
                }
            ],
            "stateMutability": "view",
            "type": "function"
        },
        {
            "inputs": [],
            "name": "getTotalDemandMinutes",
            "outputs": [
                {
                    "internalType": "uint256[]",
                    "name": "",
                    "type": "uint256[]"
                }
            ],
            "stateMutability": "view",
            "type": "function"
        },
        {
            "inputs": [],
            "name": "getValidOfferIDs",
            "outputs": [
                {
                    "internalType": "bytes32[]",
                    "name": "",
                    "type": "bytes32[]"
                }
            ],
            "stateMutability": "view",
            "type": "function"
        },
        {
            "inputs": [],
            "name": "maxAllowedPrice",
            "outputs": [
                {
                    "internalType": "uint256",
                    "name": "",
                    "type": "uint256"
                }
            ],
            "stateMutability": "view",
            "type": "function"
        },
        {
            "inputs": [],
            "name": "minAllowedPrice",
            "outputs": [
                {
                    "internalType": "uint256",
                    "name": "",
                    "type": "uint256"
                }
            ],
            "stateMutability": "view",
            "type": "function"
        },
        {
            "inputs": [],
            "name": "owner",
            "outputs": [
                {
                    "internalType": "address",
                    "name": "",
                    "type": "address"
                }
            ],
            "stateMutability": "view",
            "type": "function"
        },
        {
            "inputs": [],
            "name": "renounceOwnership",
            "outputs": [],
            "stateMutability": "nonpayable",
            "type": "function"
        },
        {
            "inputs": [
                {
                    "internalType": "uint256",
                    "name": "_amount",
                    "type": "uint256"
                },
                {
                    "internalType": "uint256",
                    "name": "_price",
                    "type": "uint256"
                }
            ],
            "name": "submitBid",
            "outputs": [],
            "stateMutability": "nonpayable",
            "type": "function"
        },
        {
            "inputs": [
                {
                    "internalType": "uint8",
                    "name": "blockNumber",
                    "type": "uint8"
                },
                {
                    "internalType": "uint256",
                    "name": "amount",
                    "type": "uint256"
                },
                {
                    "internalType": "uint256",
                    "name": "price",
                    "type": "uint256"
                }
            ],
            "name": "submitOffer",
            "outputs": [],
            "stateMutability": "nonpayable",
            "type": "function"
        },
        {
            "inputs": [
                {
                    "internalType": "uint256",
                    "name": "",
                    "type": "uint256"
                }
            ],
            "name": "systemMarginalOfferIDs",
            "outputs": [
                {
                    "internalType": "bytes32",
                    "name": "",
                    "type": "bytes32"
                }
            ],
            "stateMutability": "view",
            "type": "function"
        },
        {
            "inputs": [
                {
                    "internalType": "uint256",
                    "name": "",
                    "type": "uint256"
                }
            ],
            "name": "totalDemands",
            "outputs": [
                {
                    "internalType": "uint256",
                    "name": "",
                    "type": "uint256"
                }
            ],
            "stateMutability": "view",
            "type": "function"
        },
        {
            "inputs": [
                {
                    "internalType": "address",
                    "name": "newOwner",
                    "type": "address"
                }
            ],
            "name": "transferOwnership",
            "outputs": [],
            "stateMutability": "nonpayable",
            "type": "function"
        }
    ],
    "bytecode": "608060405234801561001057600080fd5b5060405162001c2938038062001c29833981016040819052610031916100b6565b61003a33610066565b600680546001600160a01b0319166001600160a01b0394909416939093179092556007556008556100f9565b600080546001600160a01b038381166001600160a01b0319831681178455604051919092169283917f8be0079c531659141344cd1fd0a4f28419497f9722a3daafe3b4186f6b6457e09190a35050565b6000806000606084860312156100cb57600080fd5b83516001600160a01b03811681146100e257600080fd5b602085015160409095015190969495509392505050565b611b2080620001096000396000f3fe608060405234801561001057600080fd5b506004361061014c5760003560e01c8063a133245b116100c3578063e17885441161007c578063e1788544146102b2578063ec6eaf62146102ba578063ef2d09f914610322578063f17e6a7014610342578063f2fde38b14610355578063f790825d1461036857600080fd5b8063a133245b1461025d578063b2f1223814610266578063b5b66e1214610286578063b821da1b1461028e578063cab0fb73146102a1578063d71a60c0146102aa57600080fd5b80634c5140a5116101155780634c5140a5146101b4578063696e2c0f146101e2578063715018a61461021257806383f1444d1461021a5780638da5cb5b146102225780639af94f301461023d57600080fd5b8062f049021461015157806314bacef71461017a57806321dfca171461018f578063238a1cc31461019957806325f8a08d146101ac575b600080fd5b61016461015f366004611621565b610388565b604051610171919061163a565b60405180910390f35b610182610425565b60405161017191906116af565b61019761047d565b005b6101976101a7366004611621565b6106a6565b6101826108de565b6101d46101c2366004611621565b60096020526000908152604090205481565b604051908152602001610171565b6101d46101f0366004611621565b6000908152600960209081526040808320548352600191829052909120015490565b610197610934565b610182610948565b6000546040516001600160a01b039091168152602001610171565b6101d461024b366004611621565b6000908152600a602052604090205490565b6101d460075481565b6101d4610274366004611621565b600d6020526000908152604090205481565b61018261099e565b61019761029c3660046116e7565b6109f4565b6101d460085481565b6101d4610e94565b610182610eee565b6102f96102c8366004611621565b600160208190526000918252604090912080549181015460028201546003909201549091906001600160a01b031684565b604080519485526020850193909352918301526001600160a01b03166060820152608001610171565b610335610330366004611621565b610f4d565b6040516101719190611709565b61019761035036600461174e565b610fd4565b610197610363366004611798565b6112ef565b61037b610376366004611621565b611365565b60405161017191906117bc565b606060036000838152602001908152602001600020805480602002602001604051908101604052809291908181526020016000905b8282101561041a57600084815260209081902060408051608081018252600486029092018054835260018082015484860152600282015492840192909252600301546001600160a01b0316606083015290835290920191016103bd565b505050509050919050565b6060600580548060200260200160405190810160405280929190818152602001828054801561047357602002820191906000526020600020905b81548152602001906001019080831161045f575b5050505050905090565b6104856113ef565b6000610493610e1042611834565b61049f90610e10611856565b600081815260036020526040902054909150158015906104c0575060055415155b156106a3576000806104d0610e94565b905060006104dc611449565b905060006104ec610e1042611834565b6104f890610e10611856565b905060005b825181101561069d5760006001600085848151811061051e5761051e61186d565b6020026020010151815260200190815260200160002060030160009054906101000a90046001600160a01b031690506000600160008685815181106105655761056561186d565b60200260200101518152602001908152602001600020600001549050808761058d9190611883565b600085815260046020908152604080832081516060810183526001600160a01b03888116825281850188815242948301948552835460018082018655948852959096209151600390950290910180546001600160a01b0319169490911693909317835592519282019290925590516002909101559650858710610688576000610617603c42611834565b61062290603c611856565b90508584815181106106365761063661186d565b602090810291909101810151600083815260099092526040822055600b805460018101825591527f0175b7a638427703f0dbe7bb9bbf987a2551717b34e79f33b5b1008d1fa01db901555061069d9050565b5050808061069590611896565b9150506104fd565b50505050505b50565b6106ae6113ef565b4281106106f65760405162461bcd60e51b8152602060048201526011602482015270121bdd5c881a5cc81b9bdd081d985b1a59607a1b60448201526064015b60405180910390fd5b6000805b600b5481101561088b576000600b82815481106107195761071961186d565b90600052602060002001549050838110158015610740575061073d84610e10611883565b81105b156108785760008181526009602090815260408083205483526001918290528220810154600b54909291610773916118af565b841080156107b2575061078886610e10611883565b600b610795866001611883565b815481106107a5576107a561186d565b9060005260206000200154105b1561081c57603c600b85815481106107cc576107cc61186d565b9060005260206000200154600b8660016107e69190611883565b815481106107f6576107f661186d565b906000526020600020015461080b91906118af565b6108159190611834565b905061085f565b603c86600b86815481106108325761083261186d565b906000526020600020015461084791906118af565b6108519190611834565b61085c90603c6118af565b90505b6108698183611856565b6108739086611883565b945050505b508061088381611896565b9150506106fa565b50610897603c82611834565b6000838152600a6020526040812091909155600c805460018101825591527fdf6966c971051c3d54ec59162606531493a51404a002842f56009d7e5cf4a8c7019190915550565b6060600b805480602002602001604051908101604052809291908181526020018280548015610473576020028201919060005260206000209081548152602001906001019080831161045f575050505050905090565b61093c6113ef565b61094660006115d1565b565b6060600e805480602002602001604051908101604052809291908181526020018280548015610473576020028201919060005260206000209081548152602001906001019080831161045f575050505050905090565b6060600c805480602002602001604051908101604052809291908181526020018280548015610473576020028201919060005260206000209081548152602001906001019080831161045f575050505050905090565b60065460405163b2a89e1560e01b81523360048201819052916001600160a01b03169063b2a89e1590602401602060405180830381865afa158015610a3d573d6000803e3d6000fd5b505050506040513d601f19601f82011682018060405250810190610a6191906118c2565b610aa55760405162461bcd60e51b81526020600482015260156024820152742ab73932b3b4b9ba32b932b21031b7b739bab6b2b960591b60448201526064016106ed565b6008548211158015610ab957506007548210155b610af55760405162461bcd60e51b815260206004820152600d60248201526c496e76616c696420707269636560981b60448201526064016106ed565b6000610b03610e1042611834565b610b0f90610e10611856565b90506000610b1e603c42611834565b610b2990603c611856565b33600090815260026020526040812054919250908015801590610b8057503360009081526002602052604090208490610b636001846118af565b81548110610b7357610b7361186d565b9060005260206000200154145b15610c3a5760008481526003602052604081205490610ba06001836118af565b90505b6000868152600360205260409020805433919083908110610bc657610bc661186d565b60009182526020909120600360049092020101546001600160a01b031603610c21576000868152600360205260409020805482908110610c0857610c0861186d565b9060005260206000209060040201600001549350610c33565b80610c2b816118e4565b915050610ba3565b5050610c5d565b336000908152600260209081526040822080546001810182559083529120018490555b6000610c67610e94565b60008681526003602052604081205491925003610c82575060005b870182811015610ccb5760405162461bcd60e51b815260206004820152601460248201527327bb32b9333637bb9036b0bc103ab4b73a191a9b60611b60448201526064016106ed565b8281039050600660009054906101000a90046001600160a01b03166001600160a01b031663442c18f36040518163ffffffff1660e01b8152600401602060405180830381865afa158015610d23573d6000803e3d6000fd5b505050506040513d601f19601f82011682018060405250810190610d479190611912565b61ffff16811115610d9a5760405162461bcd60e51b815260206004820152601b60248201527f44656d616e64206578636565647320746f74616c20737570706c79000000000060448201526064016106ed565b6000848152600d60209081526040808320849055600e805460018082019092557fbb7b4a454dc3493923482f07822329ed19e8244eff582cc204f8554c3620c3fd01889055888452600380845282852083516080810185528e81528086018e81528186018c8152336060840181815285548089018755958b529989902093516004909502909301938455905194830194909455925160028201559451940180546001600160a01b0319166001600160a01b03909516949094179093555191825288918a917f2eef226398f000ec33af3b3be58878356d5c7b195bff89de5067bbfe7d2ee4a391015b60405180910390a35050505050505050565b600e546000908015610ee657600e8054600d91600091610eb6906001906118af565b81548110610ec657610ec661186d565b906000526020600020015481526020019081526020016000205491505090565b600091505090565b33600090815260026020908152604091829020805483518184028101840190945280845260609392830182828015610473576020028201919060005260206000209081548152602001906001019080831161045f575050505050905090565b610f81604051806080016040528060008152602001600081526020016000815260200160006001600160a01b031681525090565b5060009081526009602090815260408083205483526001808352928190208151608081018352815481529381015492840192909252600282015490830152600301546001600160a01b0316606082015290565b6006546040516373b6f1d360e01b81523360048201819052916001600160a01b0316906373b6f1d390602401602060405180830381865afa15801561101d573d6000803e3d6000fd5b505050506040513d601f19601f8201168201806040525081019061104191906118c2565b6110855760405162461bcd60e51b81526020600482015260156024820152742ab73932b3b4b9ba32b932b21039bab8383634b2b960591b60448201526064016106ed565b338383600854811115801561109c57506007548110155b6110d85760405162461bcd60e51b815260206004820152600d60248201526c496e76616c696420707269636560981b60448201526064016106ed565b600654604051637f3804f960e11b81526001600160a01b0385811660048301529091169063fe7009f290602401600060405180830381865afa158015611122573d6000803e3d6000fd5b505050506040513d6000823e601f3d908101601f1916820160405261114a9190810190611a22565b6060015161ffff168211156111925760405162461bcd60e51b815260206004820152600e60248201526d125b9d985b1a5908185b5bdd5b9d60921b60448201526064016106ed565b6040516bffffffffffffffffffffffff193360601b1660208201526001600160f81b031960f889901b166034820152600090603501604051602081830303815290604052805190602001209050600160008281526020019081526020016000206002015460000361123357600580546001810182556000919091527f036b6384b5eca791c62761152d0c79bb0604c104a5fb6f4eb0703f3154bb3db0018190555b6040518060800160405280888152602001878152602001603c426112579190611834565b61126290603c611856565b815233602091820181905260008481526001808452604091829020855181558585015191810191909155848201516002820155606090940151600390940180546001600160a01b0319166001600160a01b03909516949094179093559151918252879189917f60e344e47525731fddb78da0406d35494f63a1e7ebb282981fa22ca34f00168c9101610e82565b6112f76113ef565b6001600160a01b03811661135c5760405162461bcd60e51b815260206004820152602660248201527f4f776e61626c653a206e6577206f776e657220697320746865207a65726f206160448201526564647265737360d01b60648201526084016106ed565b6106a3816115d1565b606060046000838152602001908152602001600020805480602002602001604051908101604052809291908181526020016000905b8282101561041a576000848152602090819020604080516060810182526003860290920180546001600160a01b031683526001808201548486015260029091015491830191909152908352909201910161139a565b6000546001600160a01b031633146109465760405162461bcd60e51b815260206004820181905260248201527f4f776e61626c653a2063616c6c6572206973206e6f7420746865206f776e657260448201526064016106ed565b60606000600580548060200260200160405190810160405280929190818152602001828054801561149957602002820191906000526020600020905b815481526020019060010190808311611485575b505083519394506000925050505b818110156115c95760006114bc826001611883565b90505b828110156115b657600160008583815181106114dd576114dd61186d565b60200260200101518152602001908152602001600020600101546001600086858151811061150d5761150d61186d565b602002602001015181526020019081526020016000206001015411156115a45760008483815181106115415761154161186d565b6020026020010151905084828151811061155d5761155d61186d565b60200260200101518584815181106115775761157761186d565b602002602001018181525050808583815181106115965761159661186d565b602002602001018181525050505b806115ae81611896565b9150506114bf565b50806115c181611896565b9150506114a7565b509092915050565b600080546001600160a01b038381166001600160a01b0319831681178455604051919092169283917f8be0079c531659141344cd1fd0a4f28419497f9722a3daafe3b4186f6b6457e09190a35050565b60006020828403121561163357600080fd5b5035919050565b6020808252825182820181905260009190848201906040850190845b818110156116a3576116908385518051825260208082015190830152604080820151908301526060908101516001600160a01b0316910152565b9284019260809290920191600101611656565b50909695505050505050565b6020808252825182820181905260009190848201906040850190845b818110156116a3578351835292840192918401916001016116cb565b600080604083850312156116fa57600080fd5b50508035926020909101359150565b8151815260208083015190820152604080830151908201526060808301516001600160a01b031690820152608081015b92915050565b60ff811681146106a357600080fd5b60008060006060848603121561176357600080fd5b833561176e8161173f565b95602085013595506040909401359392505050565b6001600160a01b03811681146106a357600080fd5b6000602082840312156117aa57600080fd5b81356117b581611783565b9392505050565b602080825282518282018190526000919060409081850190868401855b8281101561181157815180516001600160a01b03168552868101518786015285015185850152606090930192908501906001016117d9565b5091979650505050505050565b634e487b7160e01b600052601160045260246000fd5b60008261185157634e487b7160e01b600052601260045260246000fd5b500490565b80820281158282048414176117395761173961181e565b634e487b7160e01b600052603260045260246000fd5b808201808211156117395761173961181e565b6000600182016118a8576118a861181e565b5060010190565b818103818111156117395761173961181e565b6000602082840312156118d457600080fd5b815180151581146117b557600080fd5b6000816118f3576118f361181e565b506000190190565b805161ffff8116811461190d57600080fd5b919050565b60006020828403121561192457600080fd5b6117b5826118fb565b634e487b7160e01b600052604160045260246000fd5b60405160a0810167ffffffffffffffff811182821017156119665761196661192d565b60405290565b604051601f8201601f1916810167ffffffffffffffff811182821017156119955761199561192d565b604052919050565b600082601f8301126119ae57600080fd5b815167ffffffffffffffff8111156119c8576119c861192d565b60206119dc601f8301601f1916820161196c565b82815285828487010111156119f057600080fd5b60005b83811015611a0e5785810183015182820184015282016119f3565b506000928101909101919091529392505050565b600060208284031215611a3457600080fd5b815167ffffffffffffffff80821115611a4c57600080fd5b9083019060a08286031215611a6057600080fd5b611a68611943565b8251611a7381611783565b8152602083015182811115611a8757600080fd5b611a938782860161199d565b6020830152506040830151611aa78161173f565b6040820152611ab8606084016118fb565b6060820152608083015182811115611acf57600080fd5b611adb8782860161199d565b6080830152509594505050505056fea2646970667358221220946669cab59001f43d9d813b680d0c2824db2d508d8798d3cb550d4af1e7404864736f6c63430008130033",
    "sourcePath": "/home/ubuntu/mnt/bpet-contracts/contracts/PoolMarket.sol",
    "compiler": {
        "name": "solc",
        "version": "0.8.19+commit.7dd6d404"
    },
    "functionHashes": {
        "calculatePoolPrice(uint256)": "238a1cc3",
        "calculateSMP()": "21dfca17",
        "energyOffers(bytes32)": "ec6eaf62",
        "getBidHours()": "e1788544",
        "getDispatchedOffers(uint256)": "f790825d",
        "getEnergyBids(uint256)": "00f04902",
        "getLatestTotalDemand()": "d71a60c0",
        "getMarginalOffer(uint256)": "ef2d09f9",
        "getPoolPrice(uint256)": "9af94f30",
        "getPoolpriceHours()": "b5b66e12",
        "getSMP(uint256)": "696e2c0f",
        "getSystemMarginalMinutes()": "25f8a08d",
        "getTotalDemandMinutes()": "83f1444d",
        "getValidOfferIDs()": "14bacef7",
        "maxAllowedPrice()": "cab0fb73",
        "minAllowedPrice()": "a133245b",
        "owner()": "8da5cb5b",
        "renounceOwnership()": "715018a6",
        "submitBid(uint256,uint256)": "b821da1b",
        "submitOffer(uint8,uint256,uint256)": "f17e6a70",
        "systemMarginalOfferIDs(uint256)": "4c5140a5",
        "totalDemands(uint256)": "b2f12238",
        "transferOwnership(address)": "f2fde38b"
    },
    "gasEstimates": {
        "creation": {
            "codeDepositCost": "1388800",
            "executionCost": "infinite",
            "totalCost": "infinite"
        },
        "external": {
            "calculatePoolPrice(uint256)": "infinite",
            "calculateSMP()": "infinite",
            "energyOffers(bytes32)": "8926",
            "getBidHours()": "infinite",
            "getDispatchedOffers(uint256)": "infinite",
            "getEnergyBids(uint256)": "infinite",
            "getLatestTotalDemand()": "11117",
            "getMarginalOffer(uint256)": "11393",
            "getPoolPrice(uint256)": "2571",
            "getPoolpriceHours()": "infinite",
            "getSMP(uint256)": "4664",
            "getSystemMarginalMinutes()": "infinite",
            "getTotalDemandMinutes()": "infinite",
            "getValidOfferIDs()": "infinite",
            "maxAllowedPrice()": "2406",
            "minAllowedPrice()": "2318",
            "owner()": "2412",
            "renounceOwnership()": "infinite",
            "submitBid(uint256,uint256)": "infinite",
            "submitOffer(uint8,uint256,uint256)": "infinite",
            "systemMarginalOfferIDs(uint256)": "2461",
            "totalDemands(uint256)": "2483",
            "transferOwnership(address)": "infinite"
        },
        "internal": {
            "getMeritOrderSnapshot()": "infinite"
        }
    }
}